:100000002DC0000046C0000044C0000011C3000025
:1000100040C000003EC000003CC00000E2C2000042
:1000200038C0000036C0000034C0000032C00000FC
:1000300030C000002EC000002CC000002AC000000C
:1000400028C0000026C0000024C0000022C000001C
:1000500020C000001EC000001CC0000011241FBEF4
:10006000CFEFD4E0DEBFCDBF11E0A0E0B1E0ECE225
:10007000F9E002C005900D92A232B107D9F723E052
:10008000A2E2B1E001C01D92AA34B207E1F7F9D2B1
:100090004BC4B6CF8091240191E08927809324013D
:1000A0008093FE000895AC01969587959295829570
:1000B0008F7089279F708927BA016627770F661F7F
:1000C00077279A0122703271262B372BBA01672FBE
:1000D00077276695669560717727262B372BBC01AD
:1000E00066277170262B372BBA01769567956627A0
:1000F0007470262B372BBA01729562956F70672743
:100100007F70672760747727262B372BBA01769587
:100110006795769567957695679560727727262B14
:10012000372B84709927282B392BCA01880F991FE8
:1001300080789927282B392BCA0196958795969513
:10014000879588709927282B392BCA019695982F67
:1001500088279795879588279870282B392BCA016F
:10016000982F88279295907F88279078282B392B75
:10017000CA01982F8827990F990F990F8827907295
:10018000282B392B50E4459F502D44271124CA01B8
:1001900088279074822B932B08959C01CB01892B87
:1001A00041F59091EC00822F8F70907F892B809386
:1001B000EC004091F100C901929582958F708927DA
:1001C0009F7089278F70407F842B8093F1009091DE
:1001D000F600832F8F70907F892B8093F60090918B
:1001E000FB00832F82958F70907F892B8093FB007B
:1001F00008956130710541F59091EC00822F829550
:10020000807F9F70892B8093EC009091F100822F6A
:10021000807F9F70892B8093F1004091F600C90187
:10022000929582958F7089279F708927807F4F7064
:10023000842B8093F6009091FB00832F807F9F702A
:10024000892B8093FB0008956230710509F482C008
:100250006330710509F456C06430710559F1653099
:10026000710539F59091EE00822F8295807F9F7005
:10027000892B8093EE009091F300822F807F9F70F6
:10028000892B8093F3004091F800C90192958295E3
:100290008F7089279F708927807F4F70842B809370
:1002A000F8009091FD00832F807F9F70892B8093B1
:1002B000FD0008959091EE00822F8F70907F892B22
:1002C0008093EE004091F300C901929582958F7062
:1002D00089279F7089278F70407F842B8093F3003C
:1002E0009091F800832F8F70907F892B8093F80076
:1002F0009091FD00832F82958F70907F892B809342
:10030000FD0008959091ED00822F8295807F9F706F
:10031000892B8093ED009091F200822F807F9F7057
:10032000892B8093F2004091F700C9019295829544
:100330008F7089279F708927807F4F70842B8093CF
:10034000F7009091FC00832F807F9F70892B809312
:10035000FC0008959091ED00822F8F70907F892B83
:100360008093ED004091F200C901929582958F70C3
:1003700089279F7089278F70407F842B8093F2009C
:100380009091F700832F8F70907F892B8093F700D7
:100390009091FC00832F82958F70907F892B8093A2
:1003A000FC000895CF92DF92EF92FF92CF93DF93FC
:1003B000C0902201D09023018FEFC81AD80AD092A2
:1003C0002301C09222010D2C000CEE08FF08C7018A
:1003D000B60124E630E040E050E027D22AE030E0E9
:1003E00040E050E022D2205DC0E0D1E0FE0180E09C
:1003F00090E03081231749F1019633968A309105B8
:10040000C1F780E090E04FDE63E070E0C6DEC70138
:10041000B6012AE030E040E050E007D2605D80E0C5
:1004200090E028816217D9F0019623968A309105D1
:10043000C1F780E090E037DE64E070E0DF91CF91BB
:10044000FF90EF90DF90CF90A8CEFC01EE0FFF1F42
:10045000E80FF91FE050FF4F81819281D4CFFC015A
:10046000EE0FFF1FE80FF91FE050FF4F81819281CF
:10047000E2CFCF93DF9300D000D0CDB7DEB752E00C
:10048000852E912CA12CB12CC501B40124E630E0BD
:1004900040E050E0CAD12AE030E040E050E0C5D171
:1004A000205D00E011E0F80180E090E0308123174A
:1004B00009F46EC0019633968A309105B9F780E051
:1004C00090E0F1DD60E070E068DEC501B4012AE093
:1004D00030E040E050E0A9D1605D80E090E0F801BC
:1004E0002081621709F45EC001960D5F1F4F8A30AC
:1004F0009105A9F780E090E0D6DD61E070E04DDE87
:1005000024013501FFEF8F1A9F0AAF0ABF0A198233
:100510001A821B821C8289819A81AB81BC818033C3
:100520009547A105B105A4F489819A81AB81BC816D
:100530000196A11DB11D89839A83AB83BC838981F8
:100540009A81AB81BC8180339547A105B10564F3E5
:1005500080FE1BC042E0C42ED12CE12CF12CD7012F
:10056000C6012FEFC21AD20AE20AF20A4816590649
:100570006A067B0609F488CFC501B401A70196017C
:1005800054D1672B682B692B51F724013501BACF61
:10059000FC01EE0FFF1FE80FF91FE050FF4F8181B4
:1005A00092818FCFFC01EE0FFF1FE80FF91FE05083
:1005B000FF4F81819281A0CF8DE0809381001092C6
:1005C00085001092840080EC8093800082E49FE09C
:1005D000909389008093880082E280936F002D9A27
:1005E00008951F920F920FB60F9211242F933F93ED
:1005F0004F935F936F937F938F939F93AF93BF932B
:10060000EF93FF9360E070E08AE490E079D0FF918F
:10061000EF91BF91AF919F918F917F916F915F917A
:100620004F913F912F910F900FBE0F901F901895F3
:100630001F920F920FB60F9211242F933F934F9357
:100640005F936F937F938F939F93AF93BF93EF933A
:10065000FF931F9905C060E070E082ED91E050D0FB
:10066000FF91EF91BF91AF919F918F917F916F918A
:100670005F914F913F912F910F900FBE0F901F9060
:100680001895E1E6F0E0C0E8C083108287EB809324
:10069000E50087E08093E6008FE08093E70080EC40
:1006A0008093E40089DF2F9ACDBBC0936C0060E09B
:1006B00070E08AE490E024D060E070E082ED91E0A8
:1006C0001FD0D7DECF93DF9300D0CDB7DEB78983BD
:1006D0009A8380911E0190911F010696E4D0892B88
:1006E00029F00F900F90DF91CF91089589819A8121
:1006F00090931F0180931E0161E070E00696F3D095
:10070000CF93DF9300D0CDB7DEB7F89420912501C9
:1007100030912601232BE1F423E032E030939B015A
:1007200020939A0120E732E03093080220930702D9
:100730002DED32E030937502209374021092E202A4
:100740001092E10221E030E0309326012093250150
:1007500020912001309121013A832983211531050F
:10076000B1F1F901248135813093210120932001D9
:10077000808391836283738315821482CF010696EE
:1007800092D0019729F1E981FA81369689819A817F
:1007900087599F4F918B808B938B828BE0911E01A9
:1007A000F0911F018091270190912801009711F08D
:1007B00095838483F0932801E093270189819A81AE
:1007C00081DF78940F900F90DF91CF910895FFCF44
:1007D0007894A0911E01B0911F01ED91FC911197A9
:1007E00012968D919C910995F894E0911E01F091DB
:1007F0001F018091200190912101009711F09583B4
:100800008483F0932101E09320018091270190914E
:100810002801009749F0FC0124813581309328019B
:10082000209327014FDFAFCFFFCF052E97FB16F4A4
:1008300000940FD057FD05D014D007FC02D046F429
:1008400008C050954095309521953F4F4F4F5F4FD1
:10085000089590958095709561957F4F8F4F9F4F2C
:100860000895A1E21A2EAA1BBB1BFD010DC0AA1FF1
:10087000BB1FEE1FFF1FA217B307E407F50720F009
:10088000A21BB30BE40BF50B661F771F881F991F84
:100890001A9469F760957095809590959B01AC01CD
:1008A000BD01CF010895DC012D923D924D925D92E4
:1008B0006D927D928D929D92AD92BD92CD92DD9280
:1008C000ED92FD920D931D93CD93DD93FF91EF91EA
:1008D0008DB78D938EB78D938FB78D93ED93FD93D9
:1008E000882799270994DC01CB0181309105811D6E
:1008F0002D903D904D905D906D907D908D909D9050
:10090000AD90BD90CD90DD90ED90FD900D911D913D
:10091000CD91DD91ED91FD910D90F894FEBF0FBE4C
:0C092000EDBFED91FD910994F894FFCF1C
:10092C003000FC3100603210DA3310F234106635CE
:10093C0010B63610BE3700E03810FE3910F629011B
:02094C00960112
:00000001FF
