S01300002E2F72756E2F6D61696E312E737265635A
S11300002DC0000046C0000044C0000042C00000F3
S113001040C000003EC000003CC00000AAC4000074
S113002038C0000036C0000034C0000032C00000F8
S113003030C000002EC000002CC000002AC0000008
S113004028C0000026C0000024C0000022C0000018
S113005020C000001EC000001CC0000011241FBEF0
S1130060CFEFD4E0DEBFCDBF11E0A0E0B1E0ECEC17
S1130070FAE002C005900D92A232B107D9F723E04D
S1130080A2E2B1E001C01D92A934B207E1F737D36F
S11300901BC5B6CF1092FE00C0E0D1E060D40A9731
S11300A0E8F380E090E060D4CD27C093FE00F6CF63
S11300B0AC0196958795929582958F7089279F704C
S11300C08927BA016627770F661F77279A0122705E
S11300D03271262B372BBA01672F772766956695E1
S11300E060717727262B372BBC0166277170262B6E
S11300F0372BBA017695679566277470262B372BB4
S1130100BA01729562956F7067277F706727607474
S11301107727262B372BBA017695679576956795C1
S11301207695679560727727262B372B84709927ED
S1130130282B392BCA01880F991F80789927282BDF
S1130140392BCA0196958795969587958870992736
S1130150282B392BCA019695982F88279795879530
S113016088279870282B392BCA01982F88279295B5
S1130170907F88279078282B392BCA01982F8827BD
S1130180990F990F990F88279072282B392B50E4D7
S1130190459F502D44271124CA0188279074822B2F
S11301A0932B08959C01CB01892B41F59091EC0090
S11301B0822F8F70907F892B8093EC004091F10007
S11301C0C901929582958F7089279F7089278F70B6
S11301D0407F842B8093F1009091F600832F8F70E1
S11301E0907F892B8093F6009091FB00832F82955A
S11301F08F70907F892B8093FB0008956130710587
S113020041F59091EC00822F8295807F9F70892B1D
S11302108093EC009091F100822F807F9F70892B56
S11302208093F1004091F600C901929582958F70F8
S113023089279F708927807F4F70842B8093F600D5
S11302409091FB00832F807F9F70892B8093FB000C
S113025008956230710509F482C06330710509F4B0
S113026056C06430710559F16530710539F59091C6
S1130270EE00822F8295807F9F70892B8093EE0001
S11302809091F300822F807F9F70892B8093F300DD
S11302904091F800C901929582958F7089279F70CB
S11302A08927807F4F70842B8093F8009091FD0004
S11302B0832F807F9F70892B8093FD0008959091F8
S11302C0EE00822F8F70907F892B8093EE004091F7
S11302D0F300C901929582958F7089279F708927B1
S11302E08F70407F842B8093F3009091F800832FCC
S11302F08F70907F892B8093F8009091FD00832F5D
S113030082958F70907F892B8093FD000895909142
S1130310ED00822F8295807F9F70892B8093ED0062
S11303209091F200822F807F9F70892B8093F2003E
S11303304091F700C901929582958F7089279F702B
S11303408927807F4F70842B8093F7009091FC0065
S1130350832F807F9F70892B8093FC000895909158
S1130360ED00822F8F70907F892B8093ED00409158
S1130370F200C901929582958F7089279F70892711
S11303808F70407F842B8093F2009091F700832F2D
S11303908F70907F892B8093F7009091FC00832FBE
S11303A082958F70907F892B8093FC000895AF9283
S11303B0BF92CF92DF92EF92FF920F931F93CF934E
S11303C0DF935B017C018A01463051050CF046C085
S11303D024E630E040E050E0F8D22AE030E040E0AB
S11303E050E0F3D2205DC0E0D1E0FE0140E050E0F7
S11303F08081281709F447C04F5F5F4F33964A3016
S11304005105B1F780E090E053DEB801CBDEC801BE
S113041001966C01B501C7012AE030E040E050E0EC
S1130420D4D2605D05301105C9F080E090E02881E8
S11304306217F9F0019623968A309105C1F780E09E
S113044090E036DEB601DF91CF911F910F91FF90BE
S1130450EF90DF90CF90BF90AF90A4CEDF91CF917B
S11304601F910F91FF90EF90DF90CF90BF90AF90CE
S11304700895FC01EE0FFF1FE80FF91FE050FF4F36
S113048081819281DECFFA01EE0FFF1FE40FF51F89
S1130490E050FF4F81819281B7CFCF93DF9300D09B
S11304A000D0CDB7DEB743E050E060E070E0CB01B0
S11304B07EDFC12CD12C7601C39474E6472E512CD7
S11304C0612C712CEAE08E2E912CA12CB12C198276
S11304D01A821B821C8289819A81AB81BC818838F3
S11304E09341A105B105A4F489819A81AB81BC81B2
S11304F00196A11DB11D89839A83AB83BC83898135
S11305009A81AB81BC8188389341A105B10564F31C
S11305101F99FECFC701B601A301920156D2A501CE
S1130520940153D2205D00E011E0F80180E090E0F6
S11305303081231759F1019633968A309105C1F71A
S113054080E090E0B5DD63E070E02CDEC701B60129
S1130550A50194013AD2605D80E090E0F801208129
S11305606217F9F001960D5F1F4F8A309105B1F7BC
S113057080E090E09DDD64E070E014DE1F9BFECF20
S1130580FFEFCF1ADF0AEF0AFF0AA1CF9C01220F67
S1130590331F280F391FF901E050FF4F81819281E9
S11305A0D1CF9C01220F331F280F391FF901E050CE
S11305B0FF4F81819281DECFCF93DF9300D000D0B3
S11305C0CDB7DEB752E0852E912CA12CB12CC501FC
S11305D0B40124E630E040E050E0F7D12AE030E016
S11305E040E050E0F2D1205D00E011E0F80180E04D
S11305F090E03081231709F46EC0019633968A3057
S11306009105B9F780E090E053DD60E070E0CADD69
S1130610C501B4012AE030E040E050E0D6D1605D8D
S113062080E090E0F8012081621709F45EC0019631
S11306300D5F1F4F8A309105A9F780E090E038DD07
S113064061E070E0AFDD24013501FFEF8F1A9F0AEE
S1130650AF0ABF0A19821A821B821C8289819A817D
S1130660AB81BC8180339547A105B105A4F4898190
S11306709A81AB81BC810196A11DB11D89839A83A6
S1130680AB83BC8389819A81AB81BC8180339547DC
S1130690A105B10564F380FE1BC042E0C42ED12C39
S11306A0E12CF12CD701C6012FEFC21AD20AE20ABB
S11306B0F20A481659066A067B0609F488CFC50172
S11306C0B401A701960181D1672B682B692B51F7DF
S11306D024013501BACFFC01EE0FFF1FE80FF91F0B
S11306E0E050FF4F818192818FCFFC01EE0FFF1FFD
S11306F0E80FF91FE050FF4F81819281A0CFE1E61E
S1130700F0E080E88083108287EB8093E50087E047
S11307108093E6008FE08093E70080EC8093E40010
S11307202F9A60E070E08AE490E024D060E070E00A
S11307308DE492E01FD040DFCF93DF9300D0CDB79C
S1130740DEB789839A8380911E0190911F010696DA
S11307507AD1892B29F00F900F90DF91CF910895D2
S113076089819A8190931F0180931E0161E070E05A
S1130770069689D1CF93DF9300D0CDB7DEB7F89436
S11307802091240130912501232B09F479C0209173
S11307902001309121013A83298321153105D1F1BA
S11307A0F901248135813093210120932001808334
S11307B091836283738315821482CF01069643D199
S11307C0019749F1E981FA81369689819A8187599D
S11307D09F4F918B808B938B828BE981FA81158259
S11307E01482E0912601F0912701309709F47AC030
S11307F0DF010480F581E02D3097D1F789819A815A
S113080015969C938E93149778940F900F90DF9184
S1130810CF910895FFCF7894A0911E01B0911F014C
S1130820ED91FC91119712968D919C910995F894F4
S113083080911E0190911F01FC0115821482E091A8
S11308402001F0912101309709F459C0DF0104809F
S1130850F581E02D3097D1F715969C938E931497DC
S11308608091260190912701009709F447C0FC016B
S11308702481358130932701209326015DDFA2CFA7
S113088022E032E030939A01209399012FE632E07E
S113089030930702209306022CED32E03093740269
S11308A0209373021092E1021092E0022DE0209353
S11308B08100109285001092840020EC2093800027
S11308C026E831E0309389002093880022E22093C7
S11308D06F0020EA25B921E030E030932501209310
S11308E0240155CF29813A81309327012093260191
S11308F078940F900F90DF91CF910895FFCF90934C
S1130900210180932001ACCFCF93DF93F894C09161
S11309101E01D0911F011D821C828091260190919D
S11309202701FC010097B1F0DF010480F581E02D7F
S11309303097D1F71596DC93CE931497FC0124815C
S113094035813093270120932601F6DE7894DF91D8
S1130950CF910895209709F4FFCFCE01EFCF809176
S11309602201909123010895909323018093220101
S113097008951F920F920FB60F9211242F933F9355
S11309804F935F936F937F938F939F93AF93BF9393
S1130990EF93FF93B9DF8091220190912301019697
S11309A09093230180932201FF91EF91BF91AF9126
S11309B09F918F917F916F915F914F913F912F9173
S11309C00F900FBE0F901F901895052E97FB16F4ED
S11309D000940FD057FD05D014D007FC02D046F484
S11309E008C050954095309521953F4F4F4F5F4F2C
S11309F0089590958095709561957F4F8F4F9F4F87
S1130A000895A1E21A2EAA1BBB1BFD010DC0AA1F4B
S1130A10BB1FEE1FFF1FA217B307E407F50720F063
S1130A20A21BB30BE40BF50B661F771F881F991FDE
S1130A301A9469F760957095809590959B01AC0127
S1130A40BD01CF010895DC012D923D924D925D923E
S1130A506D927D928D929D92AD92BD92CD92DD92DA
S1130A60ED92FD920D931D93CD93DD93FF91EF9144
S1130A708DB78D938EB78D938FB78D93ED93FD9333
S1130A80882799270994DC01CB0181309105811DC8
S1130A902D903D904D905D906D907D908D909D90AA
S1130AA0AD90BD90CD90DD90ED90FD900D911D9198
S1130AB0CD91DD91ED91FD910D90F894FEBF0FBEA7
S10F0AC0EDBFED91FD910994F894FFCF77
S1130ACC3000FC3100603210DA3310F23410663529
S1130ADC10B63610BE3700E03810FE3910F6280177
S1050AEC95016E
S9030000FC
