:100000002DC0000046C0000044C0000084C30000B2
:1000100040C000003EC000003CC0000057C30000CC
:1000200038C0000036C0000034C0000032C00000FC
:1000300030C000002EC000002CC000002AC000000C
:1000400028C0000026C0000024C0000022C000001C
:1000500020C000001EC000001CC0000011241FBEF4
:10006000CFEFD4E0DEBFCDBF11E0A0E0B1E0E2EC25
:10007000FAE002C005900D92AA32B107D9F723E049
:10008000AAE2B1E001C01D92AF34B207E1F76AD332
:1000900016C5B6CF1092FE00C0E0D1E084E091E03A
:1000A00035D4CD27C093FE00F9CFAC019695879546
:1000B000929582958F7089279F708927BA0166274C
:1000C000770F661F77279A0122703271262B372B04
:1000D000BA01672F77276695669560717727262B7B
:1000E000372BBC0166277170262B372BBA0176950A
:1000F000679566277470262B372BBA017295629527
:100100006F7067277F70672760747727262B372BE0
:10011000BA0176956795769567957695679560723D
:100120007727262B372B84709927282B392BCA0148
:10013000880F991F80789927282B392BCA0196950B
:1001400087959695879588709927282B392BCA0112
:100150009695982F88279795879588279870282BAC
:10016000392BCA01982F88279295907F88279078FD
:10017000282B392BCA01982F8827990F990F990F8F
:1001800088279072282B392B50E4459F502D442707
:100190001124CA0188279074822B932B08959C0107
:1001A000CB01892B41F59091EC00822F8F70907FCD
:1001B000892B8093EC004091F100C90192958295C2
:1001C0008F7089279F7089278F70407F842B809341
:1001D000F1009091F600832F8F70907F892B809390
:1001E000F6009091FB00832F82958F70907F892B72
:1001F0008093FB0008956130710541F59091EC000A
:10020000822F8295807F9F70892B8093EC00909144
:10021000F100822F807F9F70892B8093F1004091A5
:10022000F600C901929582958F7089279F70892762
:10023000807F4F70842B8093F6009091FB00832F7A
:10024000807F9F70892B8093FB0008956230710539
:1002500009F482C06330710509F456C06430710539
:1002600059F16530710539F59091EE00822F829534
:10027000807F9F70892B8093EE009091F300822FF6
:10028000807F9F70892B8093F3004091F800C90113
:10029000929582958F7089279F708927807F4F70F4
:1002A000842B8093F8009091FD00832F807F9F70B6
:1002B000892B8093FD0008959091EE00822F8F701E
:1002C000907F892B8093EE004091F300C9019295B5
:1002D00082958F7089279F7089278F70407F842B2C
:1002E0008093F3009091F800832F8F70907F892B7B
:1002F0008093F8009091FD00832F82958F70907FFE
:10030000892B8093FD0008959091ED00822F8295B6
:10031000807F9F70892B8093ED009091F200822F57
:10032000807F9F70892B8093F2004091F700C90174
:10033000929582958F7089279F708927807F4F7053
:10034000842B8093F7009091FC00832F807F9F7017
:10035000892B8093FC0008959091ED00822F8F707F
:10036000907F892B8093ED004091F200C901929516
:1003700082958F7089279F7089278F70407F842B8B
:100380008093F2009091F700832F8F70907F892BDC
:100390008093F7009091FC00832F82958F70907F5F
:1003A000892B8093FC000895AF92BF92CF92DF9289
:1003B000EF92FF920F931F93CF93DF935B017C012A
:1003C0008A01463051050CF046C024E630E040E09A
:1003D00050E0F6D22AE030E040E050E0F1D2205D7B
:1003E000C8E0D1E0FE0140E050E08081281709F428
:1003F00047C04F5F5F4F33964A305105B1F780E0F9
:1004000090E053DEB801CBDEC80101966C01B50166
:10041000C7012AE030E040E050E0D2D2605D053014
:100420001105C9F080E090E028816217F9F001968B
:1004300023968A309105C1F780E090E036DEB60160
:10044000DF91CF911F910F91FF90EF90DF90CF90B0
:10045000BF90AF90A4CEDF91CF911F910F91FF90ED
:10046000EF90DF90CF90BF90AF900895FC01EE0F1A
:10047000FF1FE80FF91FE85FFE4F81819281DECFF9
:10048000FA01EE0FFF1FE40FF51FE85FFE4F8181B9
:100490009281B7CF43E050E060E070E0CB0184DFB1
:1004A000C12CD12C7601C39464E6462E512C612CCC
:1004B000712C7AE0872E912CA12CB12C80E091E058
:1004C00025D2C701B601A30192017AD2A5019401F8
:1004D00077D2205DC8E0D1E0FE0180E090E030817D
:1004E000231739F1019633968A309105C1F780E0E0
:1004F00090E0DBDD63E070E052DEC701B601A501EC
:1005000094015ED2605D80E090E028816217E1F0A6
:10051000019623968A309105C1F780E090E0C5DD11
:1005200064E070E03CDE8FEFC81AD80AE80AF80AE7
:10053000C5CF9C01220F331F280F391FF901E85F37
:10054000FE4F81819281D5CFFC01EE0FFF1FE80F96
:10055000F91FE85FFE4F81819281E1CFCF93DF9356
:1005600000D000D0CDB7DEB752E0852E912CA12C63
:10057000B12CC501B40124E630E040E050E020D2C7
:100580002AE030E040E050E01BD2205D08E011E0BE
:10059000F80180E090E03081231709F46EC00196E5
:1005A00033968A309105B9F780E090E07EDD60E017
:1005B00070E0F5DDC501B4012AE030E040E050E034
:1005C000FFD1605D80E090E0F8012081621709F4BE
:1005D0005EC001960D5F1F4F8A309105A9F780E03C
:1005E00090E063DD61E070E0DADD24013501FFEFCA
:1005F0008F1A9F0AAF0ABF0A19821A821B821C82B5
:1006000089819A81AB81BC8180339547A105B10571
:10061000A4F489819A81AB81BC810196A11DB11D91
:1006200089839A83AB83BC8389819A81AB81BC81A6
:1006300080339547A105B10564F380FE1BC042E0FD
:10064000C42ED12CE12CF12CD701C6012FEFC21AF8
:10065000D20AE20AF20A481659066A067B0609F42B
:1006600088CFC501B401A7019601AAD1672B682BD9
:10067000692B51F724013501BACFFC01EE0FFF1FA2
:10068000E80FF91FE85FFE4F818192818FCFFC0157
:10069000EE0FFF1FE80FF91FE85FFE4F8181928187
:1006A000A0CF8DE08093810010928500109284008D
:1006B00080EC8093800082E49FE090938900809397
:1006C000880082E280936F002D9A08951F920F9206
:1006D0000FB60F9211242F933F934F935F936F9315
:1006E0007F938F939F93AF93BF93EF93FF9384E098
:1006F00091E037D1FF91EF91BF91AF919F918F9191
:100700007F916F915F914F913F912F910F900FBE0D
:100710000F901F9018951F920F920FB60F921124F1
:100720002F933F934F935F936F937F938F939F93F9
:10073000AF93BF93EF93FF931F9903C080E091E0C5
:1007400010D1FF91EF91BF91AF919F918F917F91C8
:100750006F915F914F913F912F910F900FBE0F902E
:100760001F901895E1E6F0E0C0E8C083108287EBA7
:100770008093E50087E08093E6008FE08093E700B8
:1007800080EC8093E4008DDF2F9ACDBBC0936C008A
:1007900060E070E08AE490E024D060E070E08AE4F9
:1007A00092E01FD0DBDECF93DF9300D0CDB7DEB772
:1007B00089839A83809126019091270106963ED1E4
:1007C000892B29F00F900F90DF91CF9108958981A7
:1007D0009A81909327018093260161E070E006964C
:1007E0004DD1CF93DF9300D0CDB7DEB7F8942091F1
:1007F0002A0130912B01232BE1F428E032E03093E1
:10080000A00120939F0125E732E030930D02209351
:100810000C0222EE32E030937A0220937902109299
:10082000E7021092E60221E030E030932B012093A2
:100830002A0120912801309129013A832983211529
:100840003105B1F1F90124813581309329012093DB
:100850002801808391836283738315821482CF0180
:100860000696ECD0019729F1E981FA8136968981C3
:100870009A8187599F4F918B808B938B828BE091CC
:100880002601F091270180912C0190912D01009774
:1008900011F095838483F0932D01E0932C018981DD
:1008A0009A8181DF78940F900F90DF91CF91089516
:1008B000FFCF7894A0912601B0912701ED91FC9192
:1008C000119712968D919C910995F894E0912601CB
:1008D000F09127018091280190912901009711F052
:1008E00095838483F0932901E093280180912C0162
:1008F00090912D01009749F0FC01248135813093BE
:100900002D0120932C014FDFAFCFFFCFFC01F894D6
:1009100080819181892B31F481E090E09183808303
:1009200078940895A0912601B09127018281938146
:10093000009721F015969C938E931497B383A2830E
:1009400080912C0190912D01009751F0FC012481A0
:10095000358130932D0120932C0125DF7894089563
:10096000FFCFFC01F89482819381009729F1A09137
:100970002601B091270120912C0130912D012115E4
:10098000310569F015963C932E931497B0932D0181
:10099000A0932C0182819381009729F4FFCFB0931B
:1009A0002D01A0932C01DC0114962D913C913383F1
:1009B0002283F9DE78940895118210827894089544
:1009C000052E97FB16F400940FD057FD05D014D0D8
:1009D00007FC02D046F408C050954095309521950B
:1009E0003F4F4F4F5F4F089590958095709561955B
:1009F0007F4F8F4F9F4F0895A1E21A2EAA1BBB1B5A
:100A0000FD010DC0AA1FBB1FEE1FFF1FA217B307DA
:100A1000E407F50720F0A21BB30BE40BF50B661FF0
:100A2000771F881F991F1A9469F7609570958095B4
:100A300090959B01AC01BD01CF010895DC012D9281
:100A40003D924D925D926D927D928D929D92AD926E
:100A5000BD92CD92DD92ED92FD920D931D93CD93BB
:100A6000DD93FF91EF918DB78D938EB78D938FB7F7
:100A70008D93ED93FD93882799270994DC01CB0191
:100A800081309105811D2D903D904D905D906D9030
:100A90007D908D909D90AD90BD90CD90DD90ED902E
:100AA000FD900D911D91CD91DD91ED91FD910D90F8
:100AB000F894FEBF0FBEEDBFED91FD910994F8943F
:020AC000FFCF66
:100AC20001000000010000003000FC310060321023
:100AD200DA3310F23410663510B63610BE3700E045
:0A0AE2003810FE3910F62E019B01BA
:00000001FF
