S01200002E2F72756E2F6D61696E2E737265638C
S11300002DC0000010C500007CC50000E8C500003C
S113001054C60000C0C600003DC000000C94200D72
S113002039C000000C94CF0C24C7000090C7000016
S1130030FCC700000C9483080C94F1080C945F092D
S11300400C94CD090C943B0A0C94A90A0C94170B3C
S11300500C94850B0C94F30B0C94610C11241FBEAF
S1130060CFEFD4E0DEBFCDBF11E0A0E0B1E0E6E524
S1130070F3E202C005900D92A632B107D9F724E04D
S1130080A6E2B1E001C01D92A937B207E1F7CFD2D1
S11300900C94A911B5CFCF92DF92EF92FF920F93F8
S11300A01F93CF93DF938C0140E050E069E474E048
S11300B001960E94470FEC0140E050E069E474E0CF
S11300C0C8010B960E94470FBE01DD0F880B990BE8
S11300D065D20E944110675F724C8F4F9F4FC12CB5
S11300E0D12C2BE4E22E20E0F22E20E030E0A90116
S11300F00E94EA0D80E090E0DF91CF911F910F9173
S1130100FF90EF90DF90CF900895CF92DF92EF921F
S1130110FF920F931F938C01B5D085B1806D85B983
S11301208EB18C608EB980ED80936C008CE08093EE
S11301306B0080EC8DBBC12CD12C8BE4E82E80E0CD
S1130140F82E20E030E0A90160E070E0CB010E94CD
S1130150EA0D1F910F91FF90EF90DF90CF900895DB
S1130160CF92DF92EF92FF920F931F93FC01808155
S11301708F01811119C00F5F1F4FC12CD12C80EE4C
S1130180E82E83E0F82E20E030E0A90160E070E082
S1130190CB010E94EA0D80E090E01F910F91FF9047
S11301A0EF90DF90CF900895055F1F4FE6CFCF9279
S11301B0DF92EF92FF920F931F93FC0180818F01D6
S11301C0811119C00F5F1F4FC12CD12C8EE1E82E75
S11301D084E0F82E20E030E0A90160E070E0CB017B
S11301E00E94EA0D80E090E01F910F91FF90EF9044
S11301F0DF90CF900895055F1F4FE6CFCF92DF9237
S1130200EF92FF920F931F93FC0180818F01811164
S113021019C00F5F1F4FC12CD12C83E3E82E84E05B
S1130220F82E20E030E0A90160E070E0CB010E94EC
S1130230EA0D80E090E01F910F91FF90EF90DF9026
S1130240CF900895055F1F4FE6CFFC011F9B0BC0A5
S11302501E9B11C0629B0BC0639B0FC01C9B10C0F4
S113026081E090E00895A3DF80E090E0089510829B
S113027080E090E0089574DFF7CF81E08083F4CFCD
S1130280BDDFF2CF87EB8093E50087E08093E60043
S11302908FE08093E70080EC8093E4000895AC0144
S11302A096958795929582958F7089279F70892757
S11302B0BA016627770F661F77279A012270327179
S11302C0262B372BBA01672F7727669566956071C1
S11302D07727262B372BBC0166277170262B372BEB
S11302E0BA017695679566277470262B372BBA0169
S11302F0729562956F7067277F70672760747727A0
S1130300262B372BBA017695679576956795769562
S1130310679560727727262B372B84709927282BB3
S1130320392BCA01880F991F80789927282B392BDC
S1130330CA01969587959695879588709927282B55
S1130340392BCA019695982F8827979587958827E2
S11303509870282B392BCA01982F88279295907F63
S113036088279078282B392BCA01982F8827990F32
S1130370990F990F88279072282B392B50E4459FA9
S1130380502D44271124CA0188279074822B932B63
S113039008959C01CB01892B41F59091EC00822FAB
S11303A08F70907F892B8093EC004091F100C901FC
S11303B0929582958F7089279F7089278F70407FCF
S11303C0842B8093F1009091F600832F8F70907F9F
S11303D0892B8093F6009091FB00832F82958F7078
S11303E0907F892B8093FB0008956130710541F55E
S11303F09091EC00822F8295807F9F70892B80934F
S1130400EC009091F100822F807F9F70892B809364
S1130410F1004091F600C901929582958F70892769
S11304209F708927807F4F70842B8093F600909172
S1130430FB00832F807F9F70892B8093FB0008959E
S11304406230710509F482C06330710509F456C045
S11304506430710559F16530710539F59091EE00FC
S1130460822F8295807F9F70892B8093EE009091DC
S1130470F300822F807F9F70892B8093F30040913B
S1130480F800C901929582958F7089279F708927FA
S1130490807F4F70842B8093F8009091FD00832F10
S11304A0807F9F70892B8093FD0008959091EE00CA
S11304B0822F8F70907F892B8093EE004091F30000
S11304C0C901929582958F7089279F7089278F70B3
S11304D0407F842B8093F3009091F800832F8F70DA
S11304E0907F892B8093F8009091FD00832F829553
S11304F08F70907F892B8093FD0008959091ED007B
S1130500822F8295807F9F70892B8093ED0090913C
S1130510F200822F807F9F70892B8093F20040919C
S1130520F700C901929582958F7089279F7089275A
S1130530807F4F70842B8093F7009091FC00832F71
S1130540807F9F70892B8093FC0008959091ED002B
S1130550822F8F70907F892B8093ED004091F20061
S1130560C901929582958F7089279F7089278F7012
S1130570407F842B8093F2009091F700832F8F703B
S1130580907F892B8093F7009091FC00832F8295B4
S11305908F70907F892B8093FC0008959F92AF9277
S11305A0BF92CF92DF92EF92FF920F931F93CF935C
S11305B0DF9305E010E03AE0C32ED12CE12CF12CBE
S11305C0A70196010E940111922EA32EB42ED52FBD
S11305D0605DA0E0B1E0E0E0F0E0CC916C17E9F000
S11305E031961396EA30F105C1F780E090E057DECA
S11305F0B801CFDE692D7A2D8B2D9D2F0150110965
S1130600F8F6DF91CF911F910F91FF90EF90DF905B
S1130610CF90BF90AF909F900895CF01880F991FFE
S1130620E80FF91FE050FF4F81819281E0CFCDB7F1
S1130630DEB7A9970FB6F894DEBF0FBECDBF1EA2DA
S11306401FA218A619A61C8E1D8E1E8E1F8E19821F
S113065019A218A21BA21AA284E090E09DA38CA365
S11306608AE0FE01B096DE01129601900D928A9501
S1130670E1F71F8A1E8A198E188E86E090E09B8F00
S11306808A8F8AE0FE017696DE011C9601900D9217
S11306908A95E1F741E065E271E0CE0101960E949E
S11306A0861042E065E271E0CE0101960E94861058
S11306B040E050E065E870E0CE0101960E94A91088
S11306C0A9960FB6F894DEBF0FBECDBF0895CF92A2
S11306D0DF92EF92FF920F931F93CF93DF9300D09B
S11306E0CDB7DEB7E82FF92F9A838983C480D580EC
S11306F08F010A5F1F4F44ECE42E40E1F42E20E00A
S113070030E0A90160E070E0CB010E94EA0DE981CC
S1130710FA8180819181181619060CF03FC00E945D
S113072041106B017C01E981FA816081718188EE5D
S113073093E00E94EE102DE730E0DB010E941D11D2
S113074097FD27C095958795779567959595879596
S1130750779567956C0D7D1D8E1D9F1DC12CD12C29
S113076037E6E32E33E0F32E8E010F5F1F4F20E0B8
S113077030E0A9010E94EA0D80E090E00F900F9014
S1130780DF91CF911F910F91FF90EF90DF90CF9069
S113079008956D5F7F4F8F4F9F4FD4CFC480D58016
S11307A08F010A5F1F4F83EEE82E80E1F82E20E0D0
S11307B030E0A90160E070E0CB010E94EA0DDCCFDB
S11307C0CF92DF92EF92FF920F931F93CF93DF9319
S11307D000D0CDB7DEB79A83898362E470E080E00D
S11307E090E0DCDEE981FA8180819181009781F0DB
S11307F001969183808380E090E00F900F90DF91C9
S1130800CF911F910F91FF90EF90DF90CF900895BB
S1130810C12CD12C87E6E82E83E0F82E8E010F5FE1
S11308201F4F20E030E0A90160E070E0CB010E949E
S1130830EA0DE981FA8180819181DACFCF93DF9348
S1130840EC0163E670E080E090E0A8DE88819981A5
S1130850181619061CF401979983888380E090E0A8
S1130860DF91CF910895FC018081918118161906BA
S11308704CF49383828380E090E09183808380E0D2
S113088090E00895828193819183808380E090E059
S113089008950895CF93DF9300D000D0CDB7DEB78D
S11308A089E993E029E734E0FC0170979183808320
S11308B0409682179307C1F710926A041092690454
S11308C0E5E1F3E082E393E0918380838FE493E0B6
S11308D0968F858FACE6B3E0B3AFA2AF1D921C92A6
S11308E081EF91E09C838B83FA83E98389819A81E8
S11308F006960E9468118B819C81E981FA81978B0D
S1130900868B918F808F84EC9FE0948F838F1582E8
S11309101482EB81FC81E05AFF4FFC83EB838981D5
S11309209A814D969A83898389589340F9F6E8E72A
S1130930F1E0118210821582148213821282E1E6A0
S1130940F0E080E880831082109285001092840089
S113095084E08093810081E080936F000F900F907A
S11309600F900F90DF91CF910895CF93DF9300D034
S1130970CDB7DEB789839A8380911E0190911F01C0
S113098006960E946811892B29F00F900F90DF9131
S1130990CF91089589819A8190931F0180931E01BC
S11309A061E070E006960E9488110F931F93CF9325
S11309B0DF93E0917601F09177013097E9F080912F
S11309C02201909123010097B9F0C0912001D091A8
S11309D02101AA81BB811097A1F00681178120858E
S11309E0318516964D915D916D917C9119970417FF
S11309F01507260737072CF0DF91CF911F910F9130
S1130A000895FC0120813181309323012093220138
S1130A10D183C0839093210180932001DF91CF91F2
S1130A201F910F91A2CF1F920F920FB60F92112414
S1130A300F931F932F933F934F935F936F937F93E2
S1130A408F939F93AF93BF93EF93FF9380916E0126
S1130A5090916F010091840010918500AC01092EE2
S1130A60000C660B770BBA015527442720E030E0D1
S1130A70402B512B622B732B4093700150937101C7
S1130A806093720170937301B09B1AC0409184000B
S1130A90509185000196092E000CAA0BBB0BDC01BA
S1130AA09927882760E070E0842B952BA62BB72B21
S1130AB08093700190937101A0937201B0937301BC
S1130AC0E0914A01F0914B01309739F060E070E019
S1130AD08091260190912701099567DFFF91EF919D
S1130AE0BF91AF919F918F917F916F915F914F9142
S1130AF03F912F911F910F910F900FBE0F901F9058
S1130B0018951F920F920FB60F9211240F931F93F3
S1130B102F933F934F935F936F937F938F939F9301
S1130B20AF93BF93EF93FF9380916E0190916F0108
S1130B300091840010918500AC01092E000C660B15
S1130B40770BBA015527442720E030E0402B512B86
S1130B50622B732B40937001509371016093720167
S1130B6070937301B09B1AC040918400509185002A
S1130B700196092E000CAA0BBB0BDC0199278827D0
S1130B8060E070E0842B952BA62BB72B809370012B
S1130B9090937101A0937201B0937301E0914C01A1
S1130BA0F0914D01309739F061E070E080912801B7
S1130BB0909129010995F9DEFF91EF91BF91AF91D1
S1130BC09F918F917F916F915F914F913F912F9161
S1130BD01F910F910F900FBE0F901F9018951F92A9
S1130BE00F920FB60F9211240F931F932F933F93DD
S1130BF04F935F936F937F938F939F93AF93BF9321
S1130C00EF93FF9380916E0190916F0100918400A6
S1130C1010918500AC01092E000C660B770BBA010C
S1130C205527442720E030E0402B512B622B732BB7
S1130C30409370015093710160937201709373013A
S1130C40B09B1AC040918400509185000196092EF2
S1130C50000CAA0BBB0BDC019927882760E070E02D
S1130C60842B952BA62BB72B809370019093710145
S1130C70A0937201B0937301E0914E01F0914F0182
S1130C80309739F062E070E080912A0190912B0155
S1130C9009958BDEFF91EF91BF91AF919F918F9159
S1130CA07F916F915F914F913F912F911F910F9180
S1130CB00F900FBE0F901F9018951F920F920FB6B2
S1130CC00F9211240F931F932F933F934F935F938E
S1130CD06F937F938F939F93AF93BF93EF93FF9300
S1130CE080916E0190916F010091840010918500B4
S1130CF0AC01092E000C660B770BBA01552744276B
S1130D0020E030E0402B512B622B732B4093700179
S1130D10509371016093720170937301B09B1AC078
S1130D2040918400509185000196092E000CAA0B75
S1130D30BB0BDC019927882760E070E0842B952B9E
S1130D40A62BB72B8093700190937101A09372012D
S1130D50B0937301E0915001F0915101309739F053
S1130D6063E070E080912C0190912D0109951DDEC6
S1130D70FF91EF91BF91AF919F918F917F916F916F
S1130D805F914F913F912F911F910F910F900FBE43
S1130D900F901F9018951F920F920FB60F92112467
S1130DA00F931F932F933F934F935F936F937F936F
S1130DB08F939F93AF93BF93EF93FF9380916E01B3
S1130DC090916F010091840010918500AC01092E6F
S1130DD0000C660B770BBA015527442720E030E05E
S1130DE0402B512B622B732B409370015093710154
S1130DF06093720170937301B09B1AC04091840098
S1130E00509185000196092E000CAA0BBB0BDC0146
S1130E109927882760E070E0842B952BA62BB72BAD
S1130E208093700190937101A0937201B093730148
S1130E30E0915201F0915301309739F064E070E091
S1130E4080912E0190912F010995AFDDFF91EF91D3
S1130E50BF91AF919F918F917F916F915F914F91CE
S1130E603F912F911F910F910F900FBE0F901F90E4
S1130E7018951F920F920FB60F9211240F931F9380
S1130E802F933F934F935F936F937F938F939F938E
S1130E90AF93BF93EF93FF9380916E0190916F0195
S1130EA00091840010918500AC01092E000C660BA2
S1130EB0770BBA015527442720E030E0402B512B13
S1130EC0622B732B409370015093710160937201F4
S1130ED070937301B09B1AC04091840050918500B7
S1130EE00196092E000CAA0BBB0BDC01992788275D
S1130EF060E070E0842B952BA62BB72B80937001B8
S1130F0090937101A0937201B0937301E091540125
S1130F10F0915501309739F065E070E0809130012F
S1130F2090913101099541DDFF91EF91BF91AF910E
S1130F309F918F917F916F915F914F913F912F91ED
S1130F401F910F910F900FBE0F901F9018951F9235
S1130F500F920FB60F9211240F931F932F933F9369
S1130F604F935F936F937F938F939F93AF93BF93AD
S1130F70EF93FF9380916E0190916F010091840033
S1130F8010918500AC01092E000C660B770BBA0199
S1130F905527442720E030E0402B512B622B732B44
S1130FA040937001509371016093720170937301C7
S1130FB0B09B1AC040918400509185000196092E7F
S1130FC0000CAA0BBB0BDC019927882760E070E0BA
S1130FD0842B952BA62BB72B8093700190937101D2
S1130FE0A0937201B0937301E0915601F0915701FF
S1130FF0309739F066E070E08091320190913301CE
S11310000995D3DCFF91EF91BF91AF919F918F919F
S11310107F916F915F914F913F912F911F910F910C
S11310200F900FBE0F901F9018951F920F920FB63E
S11310300F9211240F931F932F933F934F935F931A
S11310406F937F938F939F93AF93BF93EF93FF938C
S113105080916E0190916F01009184001091850040
S1131060AC01092E000C660B770BBA0155274427F7
S113107020E030E0402B512B622B732B4093700106
S1131080509371016093720170937301B09B1AC005
S113109040918400509185000196092E000CAA0B02
S11310A0BB0BDC019927882760E070E0842B952B2B
S11310B0A62BB72B8093700190937101A0937201BA
S11310C0B0937301E0915801F0915901309739F0D0
S11310D067E070E08091340190913501099565DCF9
S11310E0FF91EF91BF91AF919F918F917F916F91FC
S11310F05F914F913F912F911F910F910F900FBED0
S11311000F901F9018951F920F920FB60F921124F3
S11311100F931F932F933F934F935F936F937F93FB
S11311208F939F93AF93BF93EF93FF9380916E013F
S113113090916F010091840010918500AC01092EFB
S1131140000C660B770BBA015527442720E030E0EA
S1131150402B512B622B732B4093700150937101E0
S11311606093720170937301B09B1AC04091840024
S1131170509185000196092E000CAA0BBB0BDC01D3
S11311809927882760E070E0842B952BA62BB72B3A
S11311908093700190937101A0937201B0937301D5
S11311A0E0915A01F0915B01309739F068E070E00A
S11311B080913601909137010995F7DBFF91EF910A
S11311C0BF91AF919F918F917F916F915F914F915B
S11311D03F912F911F910F910F900FBE0F901F9071
S11311E018951F920F920FB60F9211240F931F930D
S11311F02F933F934F935F936F937F938F939F931B
S1131200AF93BF93EF93FF9380916E0190916F0121
S11312100091840010918500AC01092E000C660B2E
S1131220770BBA015527442720E030E0402B512B9F
S1131230622B732B40937001509371016093720180
S113124070937301B09B1AC0409184005091850043
S11312500196092E000CAA0BBB0BDC0199278827E9
S113126060E070E0842B952BA62BB72B8093700144
S113127090937101A0937201B0937301E0915C01AA
S1131280F0915D01309739F069E070E080913801A8
S113129090913901099589DBFF91EF91BF91AF914D
S11312A09F918F917F916F915F914F913F912F917A
S11312B01F910F910F900FBE0F901F9018951F92C2
S11312C00F920FB60F9211240F931F932F933F93F6
S11312D04F935F936F937F938F939F93AF93BF933A
S11312E0EF93FF9380916E0190916F0100918400C0
S11312F010918500AC01092E000C660B770BBA0126
S11313005527442720E030E0402B512B622B732BD0
S11313104093700150937101609372017093730153
S1131320B09B1AC040918400509185000196092E0B
S1131330000CAA0BBB0BDC019927882760E070E046
S1131340842B952BA62BB72B80937001909371015E
S1131350A0937201B0937301E0915E01F0915F017B
S1131360309739F06AE070E080913A0190913B0146
S113137009951BDBFF91EF91BF91AF919F918F91E5
S11313807F916F915F914F913F912F911F910F9199
S11313900F900FBE0F901F9018951F920F920FB6CB
S11313A00F9211240F931F932F933F934F935F93A7
S11313B06F937F938F939F93AF93BF93EF93FF9319
S11313C080916E0190916F010091840010918500CD
S11313D0AC01092E000C660B770BBA015527442784
S11313E020E030E0402B512B622B732B4093700193
S11313F0509371016093720170937301B09B1AC092
S113140040918400509185000196092E000CAA0B8E
S1131410BB0BDC019927882760E070E0842B952BB7
S1131420A62BB72B8093700190937101A093720146
S1131430B0937301E0916001F0916101309739F04C
S11314406BE070E080913C0190913D010995ADDA2B
S1131450FF91EF91BF91AF919F918F917F916F9188
S11314605F914F913F912F911F910F910F900FBE5C
S11314700F901F9018951F920F920FB60F92112480
S11314800F931F932F933F934F935F936F937F9388
S11314908F939F93AF93BF93EF93FF9380916E01CC
S11314A090916F010091840010918500AC01092E88
S11314B0000C660B770BBA015527442720E030E077
S11314C0402B512B622B732B40937001509371016D
S11314D06093720170937301B09B1AC040918400B1
S11314E0509185000196092E000CAA0BBB0BDC0160
S11314F09927882760E070E0842B952BA62BB72BC7
S11315008093700190937101A0937201B093730161
S1131510E0916201F0916301309739F06CE070E082
S113152080913E0190913F0109953FDAFF91EF913F
S1131530BF91AF919F918F917F916F915F914F91E7
S11315403F912F911F910F910F900FBE0F901F90FD
S113155018951F920F920FB60F9211240F931F9399
S11315602F933F934F935F936F937F938F939F93A7
S1131570AF93BF93EF93FF9380916E0190916F01AE
S11315800091840010918500AC01092E000C660BBB
S1131590770BBA015527442720E030E0402B512B2C
S11315A0622B732B4093700150937101609372010D
S11315B070937301B09B1AC04091840050918500D0
S11315C00196092E000CAA0BBB0BDC019927882776
S11315D060E070E0842B952BA62BB72B80937001D1
S11315E090937101A0937201B0937301E09164012F
S11315F0F0916501309739F06DE070E08091400121
S1131600909141010995D1D9FF91EF91BF91AF918B
S11316109F918F917F916F915F914F913F912F9106
S11316201F910F910F900FBE0F901F9018951F924E
S11316300F920FB60F9211240F931F932F933F9382
S11316404F935F936F937F938F939F93AF93BF93C6
S1131650EF93FF9380916E0190916F01009184004C
S113166010918500AC01092E000C660B770BBA01B2
S11316705527442720E030E0402B512B622B732B5D
S113168040937001509371016093720170937301E0
S1131690B09B1AC040918400509185000196092E98
S11316A0000CAA0BBB0BDC019927882760E070E0D3
S11316B0842B952BA62BB72B8093700190937101EB
S11316C0A0937201B0937301E0916601F0916701F8
S11316D0309739F06EE070E08091420190914301BF
S11316E0099563D9FF91EF91BF91AF919F918F912C
S11316F07F916F915F914F913F912F911F910F9126
S11317000F900FBE0F901F9018951F920F920FB657
S11317100F9211240F931F932F933F934F935F9333
S11317206F937F938F939F93AF93BF93EF93FF93A5
S113173080916E0190916F01009184001091850059
S1131740AC01092E000C660B770BBA015527442710
S113175020E030E0402B512B622B732B409370011F
S1131760509371016093720170937301B09B1AC01E
S113177040918400509185000196092E000CAA0B1B
S1131780BB0BDC019927882760E070E0842B952B44
S1131790A62BB72B8093700190937101A0937201D3
S11317A0B0937301E0916801F0916901309739F0C9
S11317B06FE070E080914401909145010995F5D85E
S11317C0FF91EF91BF91AF919F918F917F916F9115
S11317D05F914F913F912F911F910F910F900FBEE9
S11317E00F901F9018951F920F920FB60F9211240D
S11317F00F931F932F933F934F935F936F937F9315
S11318008F939F93AF93BF93EF93FF9380916E0158
S113181090916F010091840010918500AC01092E14
S1131820000C660B770BBA015527442720E030E003
S1131830402B512B622B732B4093700150937101F9
S11318406093720170937301B09B1AC0409184003D
S1131850509185000196092E000CAA0BBB0BDC01EC
S11318609927882760E070E0842B952BA62BB72B53
S11318708093700190937101A0937201B0937301EE
S1131880E0916A01F0916B01309739F060E170E00A
S11318908091460190914701099587D8FF91EF9176
S11318A0BF91AF919F918F917F916F915F914F9174
S11318B03F912F911F910F910F900FBE0F901F908A
S11318C018951F920F920FB60F9211240F931F9326
S11318D02F933F934F935F936F937F938F939F9334
S11318E0AF93BF93EF93FF9380916E0190916F013B
S11318F00091840010918500AC01092E000C660B48
S1131900770BBA015527442720E030E0402B512BB8
S1131910622B732B40937001509371016093720199
S113192070937301B09B1AC040918400509185005C
S11319300196092E000CAA0BBB0BDC019927882702
S113194060E070E0842B952BA62BB72B809370015D
S113195090937101A0937201B0937301E0916C01B3
S1131960F0916D01309739F061E170E080914801A8
S113197090914901099519D8FF91EF91BF91AF91C9
S11319809F918F917F916F915F914F913F912F9193
S11319901F910F910F900FBE0F901F9018951F92DB
S11319A01FB61F9211242F933F934F935F936F930E
S11319B07F938F939F93EF93FF9380916E01909108
S11319C06F01019690936F0180936E01E091740111
S11319D0F0917501309739F04281538164817581AA
S11319E08617970799F080916F008D7F80936F0021
S11319F0FF91EF919F918F917F916F915F914F91A3
S1131A003F912F911F901FBE1F901895CA012091DE
S1131A10840030918500421B530B4130510551F035
S1131A20909389008093880080916F0082608093F6
S1131A306F00DECF80918400909185000196F0CFF5
S1131A401F920F920FB60F921124CF92DF92EF9252
S1131A50FF922F933F934F935F936F937F938F9353
S1131A609F93AF93BF93CF93DF93EF93FF93C09074
S1131A706E01D0906F018091840090918500B09B9D
S1131A8007C080918400909185002FEFC21AD20A7A
S1131A900D2C000CEE08FF087601DD24CC24A0E018
S1131AA0B0E0C82AD92AEA2AFB2A2091740130918D
S1131AB075012115310509F445C0F901828193812D
S1131AC0A481B581C816D906EA06FB060CF45EC0EB
S1131AD0D9018D919C911197909375018093740114
S1131AE0E0917601F0917701309709F469C0169678
S1131AF04D915D916D917C911997B0E0CB2F80E071
S1131B00D82F06C080819181EF010097C9F1FC01B3
S1131B1086819781A085B185481759076A077B0795
S1131B208CF7D901ED93FC93209769F530937701F5
S1131B3020937601209174013091750121153105AE
S1131B4009F0BBCF80916F008D7F80936F000E945E
S1131B50D504FF91EF91DF91CF91BF91AF919F9108
S1131B608F917F916F915F914F913F912F91FF9052
S1131B70EF90DF90CF900F900FBE0F901F901895AD
S1131B80D9011D921C92398328838FCF20916E0135
S1131B9030916F012A173B07A9F69C0140918400FC
S1131BA050918500841B950B019769F0309389004F
S1131BB02093880080916F00826080936F00C7CF6C
S1131BC01D921C92B3CF20918400309185002F5F29
S1131BD03F4FECCF4F925F926F927F928F929F9282
S1131BE0AF92BF92CF92DF92EF92FF920F931F9327
S1131BF0CF93DF932B013C0149015A013FB7F8947D
S1131C00C0912401D0912501209709F4C7C0232F46
S1131C1020788881998190932501809324010A87F3
S1131C201B87EC86FD86CE86DF8637FD92C08091C9
S1131C30700190917101A0917201B0917301480EED
S1131C40591E6A1E7B1E4A825B826C827D82181436
S1131C5019041A041B0434F088248A94982CA82CA0
S1131C604FE7B42E840C951CA61CB71C8E829F8251
S1131C70A886B98680916E0190916F01C09084000E
S1131C80D0908500B09B05C0C0908400D0908500A2
S1131C900196092E000CAA0BBB0BDC01992788279F
S1131CA0E12CF12C8C299D29AE29BF298415950599
S1131CB0A605B7050CF07DC0E0917401F0917501A3
S1131CC0A12CB12C309741F4BEC0808191815F0179
S1131CD0009709F4C5C0FC0182819381A481B58178
S1131CE0481659066A067B0684F7F983E883A1142B
S1131CF0B10409F4AAC0D501CD93DC93E091740139
S1131D00F0917501309789F1428053806480758029
S1131D1080916E0190916F018615970531F5F2015E
S1131D208091840090918500A201481B590B413099
S1131D30510529F4E0918400F09185003196F093E7
S1131D408900E093880080916F00826080936F0027
S1131D5011C0E0911E01F0911F010280F381E02D7A
S1131D6082819381A481B5816ACF80916F008D7F38
S1131D7080936F00211165C0CE01DF91CF911F9137
S1131D800F91FF90EF90DF90CF90BF90AF909F9016
S1131D908F907F906F905F904F9008958FEF809316
S1131DA0EC008093ED008093EE0081E083BF889582
S1131DB0FDCFE0917601F091770140E050E030975B
S1131DC041F462C080819181AF01009709F442C05F
S1131DD0FC0186819781A085B18588169906AA069B
S1131DE0BB0684F7F983E88341155105A9F5D0931F
S1131DF07701C0937601211509F4BECF80912201A9
S1131E00909123010097E9F0E0912001F0912101E4
S1131E10209176013091770142815381D901169640
S1131E200D911D912D913C911997DA0116964D91C2
S1131E305D916D917C911997041715072607370753
S1131E4094F0789499CF19821882D0937501C09335
S1131E5074015ECF19821882FA01D183C083CBCF7B
S1131E601982188248CFDC012D913C91119730934F
S1131E70230120932201ED93FC93909321018093FD
S1131E8020010E94B504DDCF19821882B0CFDF9201
S1131E90EF92FF920F931F93CF93DF93EC017B019B
S1131EA0D42E052F1FB71078F894A881B981109704
S1131EB019F44EC0A081B1811496ED91FC9115974F
S1131EC03097C1F720911E0130911F012A173B075B
S1131ED009F453C0111509F453C08A819B810097FA
S1131EE019F0FC01158214823B832A83F901D583FE
S1131EF0C483CD010E94B504E0911E01F0911F013D
S1131F0082819381892BA9F1F983E8838A819B815A
S1131F10019709F078946D2D702FCE01F701099582
S1131F20E82E092F8FB7F894198218828A819B8131
S1131F3082309105B0F4111509F078948E2D902F0C
S1131F40DF91CF911F910F91FF90EF90DF90089553
S1131F5080911E0190911F01998388831115D9F2F4
S1131F60D5CF1B821A82FC01158214820E94B5040B
S1131F70E2CF7894E12C00E0E1CF111509F07894D8
S1131F80EE24EA940FEFDACFC0917601D091770175
S1131F90209709F46BC0E0911E01F0911F01888124
S1131FA099819093770180937601D383C283789447
S1131FB04E855F856C857D858A859B8568DF8FB7B7
S1131FC0F894809124019091250199838883D0937A
S1131FD02501C0932401E0912001F0912101808129
S1131FE09181EC01AA81BB81C0917601D0917701E6
S1131FF0209791F0109779F24E815F8168857985F9
S113200016960D911D912D913C9119970417150762
S1132010260737070CF0BFCF90932101809320014E
S1132020809122019091230191838083F093230175
S1132030E0932201A0912001B09121011496ED9129
S1132040FC911597309741F0A081B1811496ED91E0
S1132050FC9115973097C1F7CD010E94B504C0914A
S11320607601D0917701209709F095CF8FEF809377
S1132070EC008093ED008093EE0081E083BF8895AF
S1132080FDCF0F931F934FB7F89460916E01709139
S11320906F010091840010918500B09B06C00091EF
S11320A08400109185006F5F7F4F072E000C880B12
S11320B0990BCB017727662720E030E0602B712B4A
S11320C0822B932B47FD0FC0009170011091710179
S11320D02091720130917301601B710B820B930B81
S11320E01F910F9108957894E0911E01F0911F01C2
S11320F00280F381E02D0281138124813581601BEC
S1132100710B820B930B1F910F910895CF93DF9363
S1132110DC014231B8F48FB7F894E42FF0E0EE0F0D
S1132120FF1FEF01CA5DDE4FB983A883E65BFE4F54
S11321306083718321E030E013963C932E931297D1
S113214087FD03C0DF91CF9108957894DF91CF91FB
S113215008958C017B016A018FB7F8940E944A04A8
S11321607894E114F10439F020E030E0A90160E052
S113217070E0CB012FDD8FB7F8940E94D5047894DA
S113218081E083BF8895FDCF2EB181E090E0062EDB
S113219002C0880F991F0A94E2F77EB130E0282329
S11321A0392341E050E01216130614F040E050E0E9
S11321B001C0440F6A95EAF780958723842B8EB972
S11321C080E090E008952EB181E090E001C0880F96
S11321D06A95EAF7809582238EB9089597FB072EB6
S11321E016F4009406D077FD08D02DD007FC05D056
S11321F03EF4909581959F4F0895709561957F4F1A
S11322000895052E97FB16F400940FD057FD05D0C2
S11322102ED007FC02D046F408C050954095309566
S113222021953F4F4F4F5F4F08959095809570953E
S113223061957F4F8F4F9F4F08953BD0B7FF08950F
S1132240821B930B0895AA1BBB1B51E107C0AA1F55
S1132250BB1FA617B70710F0A61BB70B881F991F43
S11322605A95A9F780959095BC01CD010895A1E2F6
S11322701A2EAA1BBB1BFD010DC0AA1FBB1FEE1FFC
S1132280FF1FA217B307E407F50720F0A21BB30B47
S1132290E40BF50B661F771F881F991F1A9469F7C3
S11322A060957095809590959B01AC01BD01CF011F
S11322B00895A29FB001B39FC001A39F700D811D1B
S11322C01124911DB29F700D811D1124911D08953B
S11322D0DC012D923D924D925D926D927D928D9294
S11322E09D92AD92BD92CD92DD92ED92FD920D93B1
S11322F01D93CD93DD93FF91EF918DB78D938EB7A1
S11323008D938FB78D93ED93FD9388279927099427
S1132310DC01CB0181309105811D2D903D904D90C4
S11323205D906D907D908D909D90AD90BD90CD9081
S1132330DD90ED90FD900D911D91CD91DD91ED918C
S1132340FD910D90F894FEBF0FBEEDBFED91FD9190
S10923500994F894FFCF8C
S11323563000FC3100603210DA3310F23410663586
S113236610B63610BE3700E03810FE3910F6780184
S109237678011503890340
S9030000FC
